{
	"discord-task1/src/Voting.sol": {
		"Voting": {
			"abi": [
				{
					"inputs": [
						{
							"internalType": "bytes32[]",
							"name": "_candidateNames",
							"type": "bytes32[]"
						}
					],
					"stateMutability": "nonpayable",
					"type": "constructor"
				},
				{
					"inputs": [
						{
							"internalType": "bytes32",
							"name": "",
							"type": "bytes32"
						}
					],
					"name": "candidates",
					"outputs": [
						{
							"internalType": "uint256",
							"name": "value",
							"type": "uint256"
						},
						{
							"internalType": "uint256",
							"name": "version",
							"type": "uint256"
						}
					],
					"stateMutability": "view",
					"type": "function"
				},
				{
					"inputs": [],
					"name": "currentVersion",
					"outputs": [
						{
							"internalType": "uint256",
							"name": "",
							"type": "uint256"
						}
					],
					"stateMutability": "view",
					"type": "function"
				},
				{
					"inputs": [
						{
							"internalType": "bytes32",
							"name": "_name",
							"type": "bytes32"
						}
					],
					"name": "getVotes",
					"outputs": [
						{
							"internalType": "uint256",
							"name": "",
							"type": "uint256"
						}
					],
					"stateMutability": "view",
					"type": "function"
				},
				{
					"inputs": [],
					"name": "resetVotes",
					"outputs": [],
					"stateMutability": "nonpayable",
					"type": "function"
				},
				{
					"inputs": [
						{
							"internalType": "bytes32",
							"name": "_name",
							"type": "bytes32"
						}
					],
					"name": "vote",
					"outputs": [],
					"stateMutability": "nonpayable",
					"type": "function"
				},
				{
					"inputs": [
						{
							"internalType": "address",
							"name": "",
							"type": "address"
						}
					],
					"name": "voter",
					"outputs": [
						{
							"internalType": "bool",
							"name": "",
							"type": "bool"
						}
					],
					"stateMutability": "view",
					"type": "function"
				}
			],
			"devdoc": {
				"kind": "dev",
				"methods": {},
				"version": 1
			},
			"evm": {
				"assembly": "    /* \"discord-task1/src/Voting.sol\":359:1767  contract Voting{ ... */\n  mstore(0x40, 0x80)\n    /* \"discord-task1/src/Voting.sol\":932:1246  constructor(bytes32[] memory _candidateNames){... */\n  callvalue\n  dup1\n  iszero\n  tag_1\n  jumpi\n  revert(0x00, 0x00)\ntag_1:\n  pop\n  mload(0x40)\n  sub(codesize, bytecodeSize)\n  dup1\n  bytecodeSize\n  dup4\n  codecopy\n  dup2\n  dup2\n  add\n  0x40\n  mstore\n  dup2\n  add\n  swap1\n  tag_2\n  swap2\n  swap1\n  tag_3\n  jump\t// in\ntag_2:\n    /* \"discord-task1/src/Voting.sol\":1021:1022  0 */\n  0x00\n    /* \"discord-task1/src/Voting.sol\":996:1011  _candidateNames */\n  dup2\n    /* \"discord-task1/src/Voting.sol\":996:1018  _candidateNames.length */\n  mload\n    /* \"discord-task1/src/Voting.sol\":996:1022  _candidateNames.length > 0 */\n  gt\n    /* \"discord-task1/src/Voting.sol\":988:1042  require(_candidateNames.length > 0, \"Empty candidate\") */\n  tag_6\n  jumpi\n  mload(0x40)\n  0x08c379a000000000000000000000000000000000000000000000000000000000\n  dup2\n  mstore\n  0x04\n  add\n  tag_7\n  swap1\n  tag_8\n  jump\t// in\ntag_7:\n  mload(0x40)\n  dup1\n  swap2\n  sub\n  swap1\n  revert\ntag_6:\n    /* \"discord-task1/src/Voting.sol\":1058:1064  uint i */\n  0x00\n    /* \"discord-task1/src/Voting.sol\":1065:1066  0 */\n  0x00\n    /* \"discord-task1/src/Voting.sol\":1058:1066  uint i=0 */\n  swap1\n  pop\n    /* \"discord-task1/src/Voting.sol\":1053:1239  for (uint i=0; i < _candidateNames.length; i++) {... */\ntag_9:\n    /* \"discord-task1/src/Voting.sol\":1072:1087  _candidateNames */\n  dup2\n    /* \"discord-task1/src/Voting.sol\":1072:1094  _candidateNames.length */\n  mload\n    /* \"discord-task1/src/Voting.sol\":1068:1069  i */\n  dup2\n    /* \"discord-task1/src/Voting.sol\":1068:1094  i < _candidateNames.length */\n  lt\n    /* \"discord-task1/src/Voting.sol\":1053:1239  for (uint i=0; i < _candidateNames.length; i++) {... */\n  iszero\n  tag_10\n  jumpi\n    /* \"discord-task1/src/Voting.sol\":1147:1227  Candidate({... */\n  mload(0x40)\n  dup1\n  0x40\n  add\n  0x40\n  mstore\n  dup1\n    /* \"discord-task1/src/Voting.sol\":1182:1183  0 */\n  0x00\n    /* \"discord-task1/src/Voting.sol\":1147:1227  Candidate({... */\n  dup2\n  mstore\n  0x20\n  add\n    /* \"discord-task1/src/Voting.sol\":1210:1211  0 */\n  0x00\n    /* \"discord-task1/src/Voting.sol\":1147:1227  Candidate({... */\n  dup2\n  mstore\n  pop\n    /* \"discord-task1/src/Voting.sol\":1116:1126  candidates */\n  0x01\n    /* \"discord-task1/src/Voting.sol\":1116:1146  candidates[_candidateNames[i]] */\n  0x00\n    /* \"discord-task1/src/Voting.sol\":1127:1142  _candidateNames */\n  dup5\n    /* \"discord-task1/src/Voting.sol\":1143:1144  i */\n  dup5\n    /* \"discord-task1/src/Voting.sol\":1127:1145  _candidateNames[i] */\n  dup2\n  mload\n  dup2\n  lt\n  tag_12\n  jumpi\n  tag_13\n  tag_14\n  jump\t// in\ntag_13:\ntag_12:\n  0x20\n  mul\n  0x20\n  add\n  add\n  mload\n    /* \"discord-task1/src/Voting.sol\":1116:1146  candidates[_candidateNames[i]] */\n  dup2\n  mstore\n  0x20\n  add\n  swap1\n  dup2\n  mstore\n  0x20\n  add\n  0x00\n  keccak256\n    /* \"discord-task1/src/Voting.sol\":1116:1227  candidates[_candidateNames[i]]=Candidate({... */\n  0x00\n  dup3\n  add\n  mload\n  dup2\n  0x00\n  add\n  sstore\n  0x20\n  dup3\n  add\n  mload\n  dup2\n  0x01\n  add\n  sstore\n  swap1\n  pop\n  pop\n    /* \"discord-task1/src/Voting.sol\":1096:1099  i++ */\n  dup1\n  dup1\n  0x01\n  add\n  swap2\n  pop\n  pop\n    /* \"discord-task1/src/Voting.sol\":1053:1239  for (uint i=0; i < _candidateNames.length; i++) {... */\n  jump(tag_9)\ntag_10:\n  pop\n    /* \"discord-task1/src/Voting.sol\":932:1246  constructor(bytes32[] memory _candidateNames){... */\n  pop\n    /* \"discord-task1/src/Voting.sol\":359:1767  contract Voting{ ... */\n  jump(tag_15)\n    /* \"#utility.yul\":7:82   */\ntag_16:\n    /* \"#utility.yul\":40:46   */\n  0x00\n    /* \"#utility.yul\":73:75   */\n  0x40\n    /* \"#utility.yul\":67:76   */\n  mload\n    /* \"#utility.yul\":57:76   */\n  swap1\n  pop\n    /* \"#utility.yul\":7:82   */\n  swap1\n  jump\t// out\n    /* \"#utility.yul\":88:205   */\ntag_17:\n    /* \"#utility.yul\":197:198   */\n  0x00\n    /* \"#utility.yul\":194:195   */\n  0x00\n    /* \"#utility.yul\":187:199   */\n  revert\n    /* \"#utility.yul\":211:328   */\ntag_18:\n    /* \"#utility.yul\":320:321   */\n  0x00\n    /* \"#utility.yul\":317:318   */\n  0x00\n    /* \"#utility.yul\":310:322   */\n  revert\n    /* \"#utility.yul\":334:451   */\ntag_19:\n    /* \"#utility.yul\":443:444   */\n  0x00\n    /* \"#utility.yul\":440:441   */\n  0x00\n    /* \"#utility.yul\":433:445   */\n  revert\n    /* \"#utility.yul\":457:559   */\ntag_20:\n    /* \"#utility.yul\":498:504   */\n  0x00\n    /* \"#utility.yul\":549:551   */\n  0x1f\n    /* \"#utility.yul\":545:552   */\n  not\n    /* \"#utility.yul\":540:542   */\n  0x1f\n    /* \"#utility.yul\":533:538   */\n  dup4\n    /* \"#utility.yul\":529:543   */\n  add\n    /* \"#utility.yul\":525:553   */\n  and\n    /* \"#utility.yul\":515:553   */\n  swap1\n  pop\n    /* \"#utility.yul\":457:559   */\n  swap2\n  swap1\n  pop\n  jump\t// out\n    /* \"#utility.yul\":565:745   */\ntag_21:\n    /* \"#utility.yul\":613:690   */\n  0x4e487b7100000000000000000000000000000000000000000000000000000000\n    /* \"#utility.yul\":610:611   */\n  0x00\n    /* \"#utility.yul\":603:691   */\n  mstore\n    /* \"#utility.yul\":710:714   */\n  0x41\n    /* \"#utility.yul\":707:708   */\n  0x04\n    /* \"#utility.yul\":700:715   */\n  mstore\n    /* \"#utility.yul\":734:738   */\n  0x24\n    /* \"#utility.yul\":731:732   */\n  0x00\n    /* \"#utility.yul\":724:739   */\n  revert\n    /* \"#utility.yul\":751:1032   */\ntag_22:\n    /* \"#utility.yul\":834:861   */\n  tag_42\n    /* \"#utility.yul\":856:860   */\n  dup3\n    /* \"#utility.yul\":834:861   */\n  tag_20\n  jump\t// in\ntag_42:\n    /* \"#utility.yul\":826:832   */\n  dup2\n    /* \"#utility.yul\":822:862   */\n  add\n    /* \"#utility.yul\":964:970   */\n  dup2\n    /* \"#utility.yul\":952:962   */\n  dup2\n    /* \"#utility.yul\":949:971   */\n  lt\n    /* \"#utility.yul\":928:946   */\n  0xffffffffffffffff\n    /* \"#utility.yul\":916:926   */\n  dup3\n    /* \"#utility.yul\":913:947   */\n  gt\n    /* \"#utility.yul\":910:972   */\n  or\n    /* \"#utility.yul\":907:995   */\n  iszero\n  tag_43\n  jumpi\n    /* \"#utility.yul\":975:993   */\n  tag_44\n  tag_21\n  jump\t// in\ntag_44:\n    /* \"#utility.yul\":907:995   */\ntag_43:\n    /* \"#utility.yul\":1015:1025   */\n  dup1\n    /* \"#utility.yul\":1011:1013   */\n  0x40\n    /* \"#utility.yul\":1004:1026   */\n  mstore\n    /* \"#utility.yul\":794:1032   */\n  pop\n    /* \"#utility.yul\":751:1032   */\n  pop\n  pop\n  jump\t// out\n    /* \"#utility.yul\":1038:1167   */\ntag_23:\n    /* \"#utility.yul\":1072:1078   */\n  0x00\n    /* \"#utility.yul\":1099:1119   */\n  tag_46\n  tag_16\n  jump\t// in\ntag_46:\n    /* \"#utility.yul\":1089:1119   */\n  swap1\n  pop\n    /* \"#utility.yul\":1128:1161   */\n  tag_47\n    /* \"#utility.yul\":1156:1160   */\n  dup3\n    /* \"#utility.yul\":1148:1154   */\n  dup3\n    /* \"#utility.yul\":1128:1161   */\n  tag_22\n  jump\t// in\ntag_47:\n    /* \"#utility.yul\":1038:1167   */\n  swap2\n  swap1\n  pop\n  jump\t// out\n    /* \"#utility.yul\":1173:1484   */\ntag_24:\n    /* \"#utility.yul\":1250:1254   */\n  0x00\n    /* \"#utility.yul\":1340:1358   */\n  0xffffffffffffffff\n    /* \"#utility.yul\":1332:1338   */\n  dup3\n    /* \"#utility.yul\":1329:1359   */\n  gt\n    /* \"#utility.yul\":1326:1382   */\n  iszero\n  tag_49\n  jumpi\n    /* \"#utility.yul\":1362:1380   */\n  tag_50\n  tag_21\n  jump\t// in\ntag_50:\n    /* \"#utility.yul\":1326:1382   */\ntag_49:\n    /* \"#utility.yul\":1412:1416   */\n  0x20\n    /* \"#utility.yul\":1404:1410   */\n  dup3\n    /* \"#utility.yul\":1400:1417   */\n  mul\n    /* \"#utility.yul\":1392:1417   */\n  swap1\n  pop\n    /* \"#utility.yul\":1472:1476   */\n  0x20\n    /* \"#utility.yul\":1466:1470   */\n  dup2\n    /* \"#utility.yul\":1462:1477   */\n  add\n    /* \"#utility.yul\":1454:1477   */\n  swap1\n  pop\n    /* \"#utility.yul\":1173:1484   */\n  swap2\n  swap1\n  pop\n  jump\t// out\n    /* \"#utility.yul\":1490:1607   */\ntag_25:\n    /* \"#utility.yul\":1599:1600   */\n  0x00\n    /* \"#utility.yul\":1596:1597   */\n  0x00\n    /* \"#utility.yul\":1589:1601   */\n  revert\n    /* \"#utility.yul\":1613:1690   */\ntag_26:\n    /* \"#utility.yul\":1650:1657   */\n  0x00\n    /* \"#utility.yul\":1679:1684   */\n  dup2\n    /* \"#utility.yul\":1668:1684   */\n  swap1\n  pop\n    /* \"#utility.yul\":1613:1690   */\n  swap2\n  swap1\n  pop\n  jump\t// out\n    /* \"#utility.yul\":1696:1818   */\ntag_27:\n    /* \"#utility.yul\":1769:1793   */\n  tag_54\n    /* \"#utility.yul\":1787:1792   */\n  dup2\n    /* \"#utility.yul\":1769:1793   */\n  tag_26\n  jump\t// in\ntag_54:\n    /* \"#utility.yul\":1762:1767   */\n  dup2\n    /* \"#utility.yul\":1759:1794   */\n  eq\n    /* \"#utility.yul\":1749:1812   */\n  tag_55\n  jumpi\n    /* \"#utility.yul\":1808:1809   */\n  0x00\n    /* \"#utility.yul\":1805:1806   */\n  0x00\n    /* \"#utility.yul\":1798:1810   */\n  revert\n    /* \"#utility.yul\":1749:1812   */\ntag_55:\n    /* \"#utility.yul\":1696:1818   */\n  pop\n  jump\t// out\n    /* \"#utility.yul\":1824:1967   */\ntag_28:\n    /* \"#utility.yul\":1881:1886   */\n  0x00\n    /* \"#utility.yul\":1912:1918   */\n  dup2\n    /* \"#utility.yul\":1906:1919   */\n  mload\n    /* \"#utility.yul\":1897:1919   */\n  swap1\n  pop\n    /* \"#utility.yul\":1928:1961   */\n  tag_57\n    /* \"#utility.yul\":1955:1960   */\n  dup2\n    /* \"#utility.yul\":1928:1961   */\n  tag_27\n  jump\t// in\ntag_57:\n    /* \"#utility.yul\":1824:1967   */\n  swap3\n  swap2\n  pop\n  pop\n  jump\t// out\n    /* \"#utility.yul\":1990:2722   */\ntag_29:\n    /* \"#utility.yul\":2097:2102   */\n  0x00\n    /* \"#utility.yul\":2122:2203   */\n  tag_59\n    /* \"#utility.yul\":2138:2202   */\n  tag_60\n    /* \"#utility.yul\":2195:2201   */\n  dup5\n    /* \"#utility.yul\":2138:2202   */\n  tag_24\n  jump\t// in\ntag_60:\n    /* \"#utility.yul\":2122:2203   */\n  tag_23\n  jump\t// in\ntag_59:\n    /* \"#utility.yul\":2113:2203   */\n  swap1\n  pop\n    /* \"#utility.yul\":2223:2228   */\n  dup1\n    /* \"#utility.yul\":2252:2258   */\n  dup4\n    /* \"#utility.yul\":2245:2250   */\n  dup3\n    /* \"#utility.yul\":2238:2259   */\n  mstore\n    /* \"#utility.yul\":2286:2290   */\n  0x20\n    /* \"#utility.yul\":2279:2284   */\n  dup3\n    /* \"#utility.yul\":2275:2291   */\n  add\n    /* \"#utility.yul\":2268:2291   */\n  swap1\n  pop\n    /* \"#utility.yul\":2339:2343   */\n  0x20\n    /* \"#utility.yul\":2331:2337   */\n  dup5\n    /* \"#utility.yul\":2327:2344   */\n  mul\n    /* \"#utility.yul\":2319:2325   */\n  dup4\n    /* \"#utility.yul\":2315:2345   */\n  add\n    /* \"#utility.yul\":2368:2371   */\n  dup6\n    /* \"#utility.yul\":2360:2366   */\n  dup2\n    /* \"#utility.yul\":2357:2372   */\n  gt\n    /* \"#utility.yul\":2354:2476   */\n  iszero\n  tag_61\n  jumpi\n    /* \"#utility.yul\":2387:2466   */\n  tag_62\n  tag_25\n  jump\t// in\ntag_62:\n    /* \"#utility.yul\":2354:2476   */\ntag_61:\n    /* \"#utility.yul\":2502:2508   */\n  dup4\n    /* \"#utility.yul\":2485:2716   */\ntag_63:\n    /* \"#utility.yul\":2519:2525   */\n  dup2\n    /* \"#utility.yul\":2514:2517   */\n  dup2\n    /* \"#utility.yul\":2511:2526   */\n  lt\n    /* \"#utility.yul\":2485:2716   */\n  iszero\n  tag_65\n  jumpi\n    /* \"#utility.yul\":2594:2597   */\n  dup1\n    /* \"#utility.yul\":2623:2671   */\n  tag_66\n    /* \"#utility.yul\":2667:2670   */\n  dup9\n    /* \"#utility.yul\":2655:2665   */\n  dup3\n    /* \"#utility.yul\":2623:2671   */\n  tag_28\n  jump\t// in\ntag_66:\n    /* \"#utility.yul\":2618:2621   */\n  dup5\n    /* \"#utility.yul\":2611:2672   */\n  mstore\n    /* \"#utility.yul\":2701:2705   */\n  0x20\n    /* \"#utility.yul\":2696:2699   */\n  dup5\n    /* \"#utility.yul\":2692:2706   */\n  add\n    /* \"#utility.yul\":2685:2706   */\n  swap4\n  pop\n    /* \"#utility.yul\":2561:2716   */\n  pop\n    /* \"#utility.yul\":2545:2549   */\n  0x20\n    /* \"#utility.yul\":2540:2543   */\n  dup2\n    /* \"#utility.yul\":2536:2550   */\n  add\n    /* \"#utility.yul\":2529:2550   */\n  swap1\n  pop\n    /* \"#utility.yul\":2485:2716   */\n  jump(tag_63)\ntag_65:\n    /* \"#utility.yul\":2489:2510   */\n  pop\n    /* \"#utility.yul\":2103:2722   */\n  pop\n  pop\n    /* \"#utility.yul\":1990:2722   */\n  swap4\n  swap3\n  pop\n  pop\n  pop\n  jump\t// out\n    /* \"#utility.yul\":2745:3130   */\ntag_30:\n    /* \"#utility.yul\":2827:2832   */\n  0x00\n    /* \"#utility.yul\":2876:2879   */\n  dup3\n    /* \"#utility.yul\":2869:2873   */\n  0x1f\n    /* \"#utility.yul\":2861:2867   */\n  dup4\n    /* \"#utility.yul\":2857:2874   */\n  add\n    /* \"#utility.yul\":2853:2880   */\n  slt\n    /* \"#utility.yul\":2843:2965   */\n  tag_68\n  jumpi\n    /* \"#utility.yul\":2884:2963   */\n  tag_69\n  tag_19\n  jump\t// in\ntag_69:\n    /* \"#utility.yul\":2843:2965   */\ntag_68:\n    /* \"#utility.yul\":2994:3000   */\n  dup2\n    /* \"#utility.yul\":2988:3001   */\n  mload\n    /* \"#utility.yul\":3019:3124   */\n  tag_70\n    /* \"#utility.yul\":3120:3123   */\n  dup5\n    /* \"#utility.yul\":3112:3118   */\n  dup3\n    /* \"#utility.yul\":3105:3109   */\n  0x20\n    /* \"#utility.yul\":3097:3103   */\n  dup7\n    /* \"#utility.yul\":3093:3110   */\n  add\n    /* \"#utility.yul\":3019:3124   */\n  tag_29\n  jump\t// in\ntag_70:\n    /* \"#utility.yul\":3010:3124   */\n  swap2\n  pop\n    /* \"#utility.yul\":2833:3130   */\n  pop\n    /* \"#utility.yul\":2745:3130   */\n  swap3\n  swap2\n  pop\n  pop\n  jump\t// out\n    /* \"#utility.yul\":3136:3690   */\ntag_3:\n    /* \"#utility.yul\":3231:3237   */\n  0x00\n    /* \"#utility.yul\":3280:3282   */\n  0x20\n    /* \"#utility.yul\":3268:3277   */\n  dup3\n    /* \"#utility.yul\":3259:3266   */\n  dup5\n    /* \"#utility.yul\":3255:3278   */\n  sub\n    /* \"#utility.yul\":3251:3283   */\n  slt\n    /* \"#utility.yul\":3248:3367   */\n  iszero\n  tag_72\n  jumpi\n    /* \"#utility.yul\":3286:3365   */\n  tag_73\n  tag_17\n  jump\t// in\ntag_73:\n    /* \"#utility.yul\":3248:3367   */\ntag_72:\n    /* \"#utility.yul\":3427:3428   */\n  0x00\n    /* \"#utility.yul\":3416:3425   */\n  dup3\n    /* \"#utility.yul\":3412:3429   */\n  add\n    /* \"#utility.yul\":3406:3430   */\n  mload\n    /* \"#utility.yul\":3457:3475   */\n  0xffffffffffffffff\n    /* \"#utility.yul\":3449:3455   */\n  dup2\n    /* \"#utility.yul\":3446:3476   */\n  gt\n    /* \"#utility.yul\":3443:3560   */\n  iszero\n  tag_74\n  jumpi\n    /* \"#utility.yul\":3479:3558   */\n  tag_75\n  tag_18\n  jump\t// in\ntag_75:\n    /* \"#utility.yul\":3443:3560   */\ntag_74:\n    /* \"#utility.yul\":3584:3673   */\n  tag_76\n    /* \"#utility.yul\":3665:3672   */\n  dup5\n    /* \"#utility.yul\":3656:3662   */\n  dup3\n    /* \"#utility.yul\":3645:3654   */\n  dup6\n    /* \"#utility.yul\":3641:3663   */\n  add\n    /* \"#utility.yul\":3584:3673   */\n  tag_30\n  jump\t// in\ntag_76:\n    /* \"#utility.yul\":3574:3673   */\n  swap2\n  pop\n    /* \"#utility.yul\":3377:3683   */\n  pop\n    /* \"#utility.yul\":3136:3690   */\n  swap3\n  swap2\n  pop\n  pop\n  jump\t// out\n    /* \"#utility.yul\":3696:3865   */\ntag_31:\n    /* \"#utility.yul\":3780:3791   */\n  0x00\n    /* \"#utility.yul\":3814:3820   */\n  dup3\n    /* \"#utility.yul\":3809:3812   */\n  dup3\n    /* \"#utility.yul\":3802:3821   */\n  mstore\n    /* \"#utility.yul\":3854:3858   */\n  0x20\n    /* \"#utility.yul\":3849:3852   */\n  dup3\n    /* \"#utility.yul\":3845:3859   */\n  add\n    /* \"#utility.yul\":3830:3859   */\n  swap1\n  pop\n    /* \"#utility.yul\":3696:3865   */\n  swap3\n  swap2\n  pop\n  pop\n  jump\t// out\n    /* \"#utility.yul\":3871:4036   */\ntag_32:\n    /* \"#utility.yul\":4011:4028   */\n  0x456d7074792063616e6469646174650000000000000000000000000000000000\n    /* \"#utility.yul\":4007:4008   */\n  0x00\n    /* \"#utility.yul\":3999:4005   */\n  dup3\n    /* \"#utility.yul\":3995:4009   */\n  add\n    /* \"#utility.yul\":3988:4029   */\n  mstore\n    /* \"#utility.yul\":3871:4036   */\n  pop\n  jump\t// out\n    /* \"#utility.yul\":4042:4408   */\ntag_33:\n    /* \"#utility.yul\":4184:4187   */\n  0x00\n    /* \"#utility.yul\":4205:4272   */\n  tag_80\n    /* \"#utility.yul\":4269:4271   */\n  0x0f\n    /* \"#utility.yul\":4264:4267   */\n  dup4\n    /* \"#utility.yul\":4205:4272   */\n  tag_31\n  jump\t// in\ntag_80:\n    /* \"#utility.yul\":4198:4272   */\n  swap2\n  pop\n    /* \"#utility.yul\":4281:4374   */\n  tag_81\n    /* \"#utility.yul\":4370:4373   */\n  dup3\n    /* \"#utility.yul\":4281:4374   */\n  tag_32\n  jump\t// in\ntag_81:\n    /* \"#utility.yul\":4399:4401   */\n  0x20\n    /* \"#utility.yul\":4394:4397   */\n  dup3\n    /* \"#utility.yul\":4390:4402   */\n  add\n    /* \"#utility.yul\":4383:4402   */\n  swap1\n  pop\n    /* \"#utility.yul\":4042:4408   */\n  swap2\n  swap1\n  pop\n  jump\t// out\n    /* \"#utility.yul\":4414:4833   */\ntag_8:\n    /* \"#utility.yul\":4580:4584   */\n  0x00\n    /* \"#utility.yul\":4618:4620   */\n  0x20\n    /* \"#utility.yul\":4607:4616   */\n  dup3\n    /* \"#utility.yul\":4603:4621   */\n  add\n    /* \"#utility.yul\":4595:4621   */\n  swap1\n  pop\n    /* \"#utility.yul\":4667:4676   */\n  dup2\n    /* \"#utility.yul\":4661:4665   */\n  dup2\n    /* \"#utility.yul\":4657:4677   */\n  sub\n    /* \"#utility.yul\":4653:4654   */\n  0x00\n    /* \"#utility.yul\":4642:4651   */\n  dup4\n    /* \"#utility.yul\":4638:4655   */\n  add\n    /* \"#utility.yul\":4631:4678   */\n  mstore\n    /* \"#utility.yul\":4695:4826   */\n  tag_83\n    /* \"#utility.yul\":4821:4825   */\n  dup2\n    /* \"#utility.yul\":4695:4826   */\n  tag_33\n  jump\t// in\ntag_83:\n    /* \"#utility.yul\":4687:4826   */\n  swap1\n  pop\n    /* \"#utility.yul\":4414:4833   */\n  swap2\n  swap1\n  pop\n  jump\t// out\n    /* \"#utility.yul\":4839:5019   */\ntag_14:\n    /* \"#utility.yul\":4887:4964   */\n  0x4e487b7100000000000000000000000000000000000000000000000000000000\n    /* \"#utility.yul\":4884:4885   */\n  0x00\n    /* \"#utility.yul\":4877:4965   */\n  mstore\n    /* \"#utility.yul\":4984:4988   */\n  0x32\n    /* \"#utility.yul\":4981:4982   */\n  0x04\n    /* \"#utility.yul\":4974:4989   */\n  mstore\n    /* \"#utility.yul\":5008:5012   */\n  0x24\n    /* \"#utility.yul\":5005:5006   */\n  0x00\n    /* \"#utility.yul\":4998:5013   */\n  revert\n    /* \"discord-task1/src/Voting.sol\":359:1767  contract Voting{ ... */\ntag_15:\n  dataSize(sub_0)\n  dup1\n  dataOffset(sub_0)\n  0x00\n  codecopy\n  0x00\n  return\nstop\n\nsub_0: assembly {\n        /* \"discord-task1/src/Voting.sol\":359:1767  contract Voting{ ... */\n      mstore(0x40, 0x80)\n      callvalue\n      dup1\n      iszero\n      tag_1\n      jumpi\n      revert(0x00, 0x00)\n    tag_1:\n      pop\n      jumpi(tag_2, lt(calldatasize, 0x04))\n      shr(0xe0, calldataload(0x00))\n      dup1\n      0x1a0478d5\n      eq\n      tag_3\n      jumpi\n      dup1\n      0x4c051100\n      eq\n      tag_4\n      jumpi\n      dup1\n      0x9d888e86\n      eq\n      tag_5\n      jumpi\n      dup1\n      0xa69beaba\n      eq\n      tag_6\n      jumpi\n      dup1\n      0xaf0dbe54\n      eq\n      tag_7\n      jumpi\n      dup1\n      0xb9830ff1\n      eq\n      tag_8\n      jumpi\n    tag_2:\n      revert(0x00, 0x00)\n        /* \"discord-task1/src/Voting.sol\":603:649  mapping (bytes32=>Candidate) public candidates */\n    tag_3:\n      tag_9\n      0x04\n      dup1\n      calldatasize\n      sub\n      dup2\n      add\n      swap1\n      tag_10\n      swap2\n      swap1\n      tag_11\n      jump\t// in\n    tag_10:\n      tag_12\n      jump\t// in\n    tag_9:\n      mload(0x40)\n      tag_13\n      swap3\n      swap2\n      swap1\n      tag_14\n      jump\t// in\n    tag_13:\n      mload(0x40)\n      dup1\n      swap2\n      sub\n      swap1\n      return\n        /* \"discord-task1/src/Voting.sol\":1515:1691  function getVotes(bytes32 _name) public view returns(uint){... */\n    tag_4:\n      tag_15\n      0x04\n      dup1\n      calldatasize\n      sub\n      dup2\n      add\n      swap1\n      tag_16\n      swap2\n      swap1\n      tag_11\n      jump\t// in\n    tag_16:\n      tag_17\n      jump\t// in\n    tag_15:\n      mload(0x40)\n      tag_18\n      swap2\n      swap1\n      tag_19\n      jump\t// in\n    tag_18:\n      mload(0x40)\n      dup1\n      swap2\n      sub\n      swap1\n      return\n        /* \"discord-task1/src/Voting.sol\":570:596  uint public currentVersion */\n    tag_5:\n      tag_20\n      tag_21\n      jump\t// in\n    tag_20:\n      mload(0x40)\n      tag_22\n      swap2\n      swap1\n      tag_19\n      jump\t// in\n    tag_22:\n      mload(0x40)\n      dup1\n      swap2\n      sub\n      swap1\n      return\n        /* \"discord-task1/src/Voting.sol\":1256:1507  function vote(bytes32 _name) public hasVoted {... */\n    tag_6:\n      tag_23\n      0x04\n      dup1\n      calldatasize\n      sub\n      dup2\n      add\n      swap1\n      tag_24\n      swap2\n      swap1\n      tag_11\n      jump\t// in\n    tag_24:\n      tag_25\n      jump\t// in\n    tag_23:\n      stop\n        /* \"discord-task1/src/Voting.sol\":691:726  mapping(address=>bool) public voter */\n    tag_7:\n      tag_26\n      0x04\n      dup1\n      calldatasize\n      sub\n      dup2\n      add\n      swap1\n      tag_27\n      swap2\n      swap1\n      tag_28\n      jump\t// in\n    tag_27:\n      tag_29\n      jump\t// in\n    tag_26:\n      mload(0x40)\n      tag_30\n      swap2\n      swap1\n      tag_31\n      jump\t// in\n    tag_30:\n      mload(0x40)\n      dup1\n      swap2\n      sub\n      swap1\n      return\n        /* \"discord-task1/src/Voting.sol\":1697:1760  function resetVotes() public{... */\n    tag_8:\n      tag_32\n      tag_33\n      jump\t// in\n    tag_32:\n      stop\n        /* \"discord-task1/src/Voting.sol\":603:649  mapping (bytes32=>Candidate) public candidates */\n    tag_12:\n      mstore(0x20, 0x01)\n      dup1\n      0x00\n      mstore\n      keccak256(0x00, 0x40)\n      0x00\n      swap2\n      pop\n      swap1\n      pop\n      dup1\n      0x00\n      add\n      sload\n      swap1\n      dup1\n      0x01\n      add\n      sload\n      swap1\n      pop\n      dup3\n      jump\t// out\n        /* \"discord-task1/src/Voting.sol\":1515:1691  function getVotes(bytes32 _name) public view returns(uint){... */\n    tag_17:\n        /* \"discord-task1/src/Voting.sol\":1568:1572  uint */\n      0x00\n        /* \"discord-task1/src/Voting.sol\":1584:1606  Candidate storage data */\n      0x00\n        /* \"discord-task1/src/Voting.sol\":1607:1617  candidates */\n      0x01\n        /* \"discord-task1/src/Voting.sol\":1607:1624  candidates[_name] */\n      0x00\n        /* \"discord-task1/src/Voting.sol\":1618:1623  _name */\n      dup5\n        /* \"discord-task1/src/Voting.sol\":1607:1624  candidates[_name] */\n      dup2\n      mstore\n      0x20\n      add\n      swap1\n      dup2\n      mstore\n      0x20\n      add\n      0x00\n      keccak256\n        /* \"discord-task1/src/Voting.sol\":1584:1624  Candidate storage data=candidates[_name] */\n      swap1\n      pop\n        /* \"discord-task1/src/Voting.sol\":1656:1670  currentVersion */\n      sload(0x00)\n        /* \"discord-task1/src/Voting.sol\":1642:1646  data */\n      dup2\n        /* \"discord-task1/src/Voting.sol\":1642:1654  data.version */\n      0x01\n      add\n      sload\n        /* \"discord-task1/src/Voting.sol\":1642:1670  data.version==currentVersion */\n      eq\n        /* \"discord-task1/src/Voting.sol\":1642:1683  data.version==currentVersion?data.value:0 */\n      tag_35\n      jumpi\n        /* \"discord-task1/src/Voting.sol\":1682:1683  0 */\n      0x00\n        /* \"discord-task1/src/Voting.sol\":1642:1683  data.version==currentVersion?data.value:0 */\n      jump(tag_36)\n    tag_35:\n        /* \"discord-task1/src/Voting.sol\":1671:1675  data */\n      dup1\n        /* \"discord-task1/src/Voting.sol\":1671:1681  data.value */\n      0x00\n      add\n      sload\n        /* \"discord-task1/src/Voting.sol\":1642:1683  data.version==currentVersion?data.value:0 */\n    tag_36:\n        /* \"discord-task1/src/Voting.sol\":1635:1683  return data.version==currentVersion?data.value:0 */\n      swap2\n      pop\n      pop\n        /* \"discord-task1/src/Voting.sol\":1515:1691  function getVotes(bytes32 _name) public view returns(uint){... */\n      swap2\n      swap1\n      pop\n      jump\t// out\n        /* \"discord-task1/src/Voting.sol\":570:596  uint public currentVersion */\n    tag_21:\n      sload(0x00)\n      dup2\n      jump\t// out\n        /* \"discord-task1/src/Voting.sol\":1256:1507  function vote(bytes32 _name) public hasVoted {... */\n    tag_25:\n        /* \"discord-task1/src/Voting.sol\":796:801  voter */\n      0x02\n        /* \"discord-task1/src/Voting.sol\":796:813  voter[msg.sender] */\n      0x00\n        /* \"discord-task1/src/Voting.sol\":802:812  msg.sender */\n      caller\n        /* \"discord-task1/src/Voting.sol\":796:813  voter[msg.sender] */\n      0xffffffffffffffffffffffffffffffffffffffff\n      and\n      0xffffffffffffffffffffffffffffffffffffffff\n      and\n      dup2\n      mstore\n      0x20\n      add\n      swap1\n      dup2\n      mstore\n      0x20\n      add\n      0x00\n      keccak256\n      0x00\n      swap1\n      sload\n      swap1\n      0x0100\n      exp\n      swap1\n      div\n      0xff\n      and\n        /* \"discord-task1/src/Voting.sol\":795:813  !voter[msg.sender] */\n      iszero\n        /* \"discord-task1/src/Voting.sol\":787:841  require(!voter[msg.sender],'The voter already voted.') */\n      tag_38\n      jumpi\n      mload(0x40)\n      0x08c379a000000000000000000000000000000000000000000000000000000000\n      dup2\n      mstore\n      0x04\n      add\n      tag_39\n      swap1\n      tag_40\n      jump\t// in\n    tag_39:\n      mload(0x40)\n      dup1\n      swap2\n      sub\n      swap1\n      revert\n    tag_38:\n        /* \"discord-task1/src/Voting.sol\":1342:1356  currentVersion */\n      sload(0x00)\n        /* \"discord-task1/src/Voting.sol\":1315:1325  candidates */\n      0x01\n        /* \"discord-task1/src/Voting.sol\":1315:1332  candidates[_name] */\n      0x00\n        /* \"discord-task1/src/Voting.sol\":1326:1331  _name */\n      dup4\n        /* \"discord-task1/src/Voting.sol\":1315:1332  candidates[_name] */\n      dup2\n      mstore\n      0x20\n      add\n      swap1\n      dup2\n      mstore\n      0x20\n      add\n      0x00\n      keccak256\n        /* \"discord-task1/src/Voting.sol\":1315:1340  candidates[_name].version */\n      0x01\n      add\n      sload\n        /* \"discord-task1/src/Voting.sol\":1315:1356  candidates[_name].version!=currentVersion */\n      eq\n        /* \"discord-task1/src/Voting.sol\":1312:1464  if(candidates[_name].version!=currentVersion){... */\n      tag_42\n      jumpi\n        /* \"discord-task1/src/Voting.sol\":1398:1412  currentVersion */\n      sload(0x00)\n        /* \"discord-task1/src/Voting.sol\":1372:1382  candidates */\n      0x01\n        /* \"discord-task1/src/Voting.sol\":1372:1389  candidates[_name] */\n      0x00\n        /* \"discord-task1/src/Voting.sol\":1383:1388  _name */\n      dup4\n        /* \"discord-task1/src/Voting.sol\":1372:1389  candidates[_name] */\n      dup2\n      mstore\n      0x20\n      add\n      swap1\n      dup2\n      mstore\n      0x20\n      add\n      0x00\n      keccak256\n        /* \"discord-task1/src/Voting.sol\":1372:1397  candidates[_name].version */\n      0x01\n      add\n        /* \"discord-task1/src/Voting.sol\":1372:1412  candidates[_name].version=currentVersion */\n      dup2\n      swap1\n      sstore\n      pop\n        /* \"discord-task1/src/Voting.sol\":1451:1452  0 */\n      0x00\n        /* \"discord-task1/src/Voting.sol\":1427:1437  candidates */\n      0x01\n        /* \"discord-task1/src/Voting.sol\":1427:1444  candidates[_name] */\n      0x00\n        /* \"discord-task1/src/Voting.sol\":1438:1443  _name */\n      dup4\n        /* \"discord-task1/src/Voting.sol\":1427:1444  candidates[_name] */\n      dup2\n      mstore\n      0x20\n      add\n      swap1\n      dup2\n      mstore\n      0x20\n      add\n      0x00\n      keccak256\n        /* \"discord-task1/src/Voting.sol\":1427:1450  candidates[_name].value */\n      0x00\n      add\n        /* \"discord-task1/src/Voting.sol\":1427:1452  candidates[_name].value=0 */\n      dup2\n      swap1\n      sstore\n      pop\n        /* \"discord-task1/src/Voting.sol\":1312:1464  if(candidates[_name].version!=currentVersion){... */\n    tag_42:\n        /* \"discord-task1/src/Voting.sol\":1474:1484  candidates */\n      0x01\n        /* \"discord-task1/src/Voting.sol\":1474:1491  candidates[_name] */\n      0x00\n        /* \"discord-task1/src/Voting.sol\":1485:1490  _name */\n      dup3\n        /* \"discord-task1/src/Voting.sol\":1474:1491  candidates[_name] */\n      dup2\n      mstore\n      0x20\n      add\n      swap1\n      dup2\n      mstore\n      0x20\n      add\n      0x00\n      keccak256\n        /* \"discord-task1/src/Voting.sol\":1474:1497  candidates[_name].value */\n      0x00\n      add\n      0x00\n        /* \"discord-task1/src/Voting.sol\":1474:1499  candidates[_name].value++ */\n      dup2\n      sload\n      dup1\n      swap3\n      swap2\n      swap1\n      tag_43\n      swap1\n      tag_44\n      jump\t// in\n    tag_43:\n      swap2\n      swap1\n      pop\n      sstore\n      pop\n        /* \"discord-task1/src/Voting.sol\":1256:1507  function vote(bytes32 _name) public hasVoted {... */\n      pop\n      jump\t// out\n        /* \"discord-task1/src/Voting.sol\":691:726  mapping(address=>bool) public voter */\n    tag_29:\n      mstore(0x20, 0x02)\n      dup1\n      0x00\n      mstore\n      keccak256(0x00, 0x40)\n      0x00\n      swap2\n      pop\n      sload\n      swap1\n      0x0100\n      exp\n      swap1\n      div\n      0xff\n      and\n      dup2\n      jump\t// out\n        /* \"discord-task1/src/Voting.sol\":1697:1760  function resetVotes() public{... */\n    tag_33:\n        /* \"discord-task1/src/Voting.sol\":1736:1750  currentVersion */\n      0x00\n      0x00\n        /* \"discord-task1/src/Voting.sol\":1736:1752  currentVersion++ */\n      dup2\n      sload\n      dup1\n      swap3\n      swap2\n      swap1\n      tag_46\n      swap1\n      tag_44\n      jump\t// in\n    tag_46:\n      swap2\n      swap1\n      pop\n      sstore\n      pop\n        /* \"discord-task1/src/Voting.sol\":1697:1760  function resetVotes() public{... */\n      jump\t// out\n        /* \"#utility.yul\":88:205   */\n    tag_48:\n        /* \"#utility.yul\":197:198   */\n      0x00\n        /* \"#utility.yul\":194:195   */\n      0x00\n        /* \"#utility.yul\":187:199   */\n      revert\n        /* \"#utility.yul\":334:411   */\n    tag_50:\n        /* \"#utility.yul\":371:378   */\n      0x00\n        /* \"#utility.yul\":400:405   */\n      dup2\n        /* \"#utility.yul\":389:405   */\n      swap1\n      pop\n        /* \"#utility.yul\":334:411   */\n      swap2\n      swap1\n      pop\n      jump\t// out\n        /* \"#utility.yul\":417:539   */\n    tag_51:\n        /* \"#utility.yul\":490:514   */\n      tag_71\n        /* \"#utility.yul\":508:513   */\n      dup2\n        /* \"#utility.yul\":490:514   */\n      tag_50\n      jump\t// in\n    tag_71:\n        /* \"#utility.yul\":483:488   */\n      dup2\n        /* \"#utility.yul\":480:515   */\n      eq\n        /* \"#utility.yul\":470:533   */\n      tag_72\n      jumpi\n        /* \"#utility.yul\":529:530   */\n      0x00\n        /* \"#utility.yul\":526:527   */\n      0x00\n        /* \"#utility.yul\":519:531   */\n      revert\n        /* \"#utility.yul\":470:533   */\n    tag_72:\n        /* \"#utility.yul\":417:539   */\n      pop\n      jump\t// out\n        /* \"#utility.yul\":545:684   */\n    tag_52:\n        /* \"#utility.yul\":591:596   */\n      0x00\n        /* \"#utility.yul\":629:635   */\n      dup2\n        /* \"#utility.yul\":616:636   */\n      calldataload\n        /* \"#utility.yul\":607:636   */\n      swap1\n      pop\n        /* \"#utility.yul\":645:678   */\n      tag_74\n        /* \"#utility.yul\":672:677   */\n      dup2\n        /* \"#utility.yul\":645:678   */\n      tag_51\n      jump\t// in\n    tag_74:\n        /* \"#utility.yul\":545:684   */\n      swap3\n      swap2\n      pop\n      pop\n      jump\t// out\n        /* \"#utility.yul\":690:1019   */\n    tag_11:\n        /* \"#utility.yul\":749:755   */\n      0x00\n        /* \"#utility.yul\":798:800   */\n      0x20\n        /* \"#utility.yul\":786:795   */\n      dup3\n        /* \"#utility.yul\":777:784   */\n      dup5\n        /* \"#utility.yul\":773:796   */\n      sub\n        /* \"#utility.yul\":769:801   */\n      slt\n        /* \"#utility.yul\":766:885   */\n      iszero\n      tag_76\n      jumpi\n        /* \"#utility.yul\":804:883   */\n      tag_77\n      tag_48\n      jump\t// in\n    tag_77:\n        /* \"#utility.yul\":766:885   */\n    tag_76:\n        /* \"#utility.yul\":924:925   */\n      0x00\n        /* \"#utility.yul\":949:1002   */\n      tag_78\n        /* \"#utility.yul\":994:1001   */\n      dup5\n        /* \"#utility.yul\":985:991   */\n      dup3\n        /* \"#utility.yul\":974:983   */\n      dup6\n        /* \"#utility.yul\":970:992   */\n      add\n        /* \"#utility.yul\":949:1002   */\n      tag_52\n      jump\t// in\n    tag_78:\n        /* \"#utility.yul\":939:1002   */\n      swap2\n      pop\n        /* \"#utility.yul\":895:1012   */\n      pop\n        /* \"#utility.yul\":690:1019   */\n      swap3\n      swap2\n      pop\n      pop\n      jump\t// out\n        /* \"#utility.yul\":1025:1102   */\n    tag_53:\n        /* \"#utility.yul\":1062:1069   */\n      0x00\n        /* \"#utility.yul\":1091:1096   */\n      dup2\n        /* \"#utility.yul\":1080:1096   */\n      swap1\n      pop\n        /* \"#utility.yul\":1025:1102   */\n      swap2\n      swap1\n      pop\n      jump\t// out\n        /* \"#utility.yul\":1108:1226   */\n    tag_54:\n        /* \"#utility.yul\":1195:1219   */\n      tag_81\n        /* \"#utility.yul\":1213:1218   */\n      dup2\n        /* \"#utility.yul\":1195:1219   */\n      tag_53\n      jump\t// in\n    tag_81:\n        /* \"#utility.yul\":1190:1193   */\n      dup3\n        /* \"#utility.yul\":1183:1220   */\n      mstore\n        /* \"#utility.yul\":1108:1226   */\n      pop\n      pop\n      jump\t// out\n        /* \"#utility.yul\":1232:1564   */\n    tag_14:\n        /* \"#utility.yul\":1353:1357   */\n      0x00\n        /* \"#utility.yul\":1391:1393   */\n      0x40\n        /* \"#utility.yul\":1380:1389   */\n      dup3\n        /* \"#utility.yul\":1376:1394   */\n      add\n        /* \"#utility.yul\":1368:1394   */\n      swap1\n      pop\n        /* \"#utility.yul\":1404:1475   */\n      tag_83\n        /* \"#utility.yul\":1472:1473   */\n      0x00\n        /* \"#utility.yul\":1461:1470   */\n      dup4\n        /* \"#utility.yul\":1457:1474   */\n      add\n        /* \"#utility.yul\":1448:1454   */\n      dup6\n        /* \"#utility.yul\":1404:1475   */\n      tag_54\n      jump\t// in\n    tag_83:\n        /* \"#utility.yul\":1485:1557   */\n      tag_84\n        /* \"#utility.yul\":1553:1555   */\n      0x20\n        /* \"#utility.yul\":1542:1551   */\n      dup4\n        /* \"#utility.yul\":1538:1556   */\n      add\n        /* \"#utility.yul\":1529:1535   */\n      dup5\n        /* \"#utility.yul\":1485:1557   */\n      tag_54\n      jump\t// in\n    tag_84:\n        /* \"#utility.yul\":1232:1564   */\n      swap4\n      swap3\n      pop\n      pop\n      pop\n      jump\t// out\n        /* \"#utility.yul\":1570:1792   */\n    tag_19:\n        /* \"#utility.yul\":1663:1667   */\n      0x00\n        /* \"#utility.yul\":1701:1703   */\n      0x20\n        /* \"#utility.yul\":1690:1699   */\n      dup3\n        /* \"#utility.yul\":1686:1704   */\n      add\n        /* \"#utility.yul\":1678:1704   */\n      swap1\n      pop\n        /* \"#utility.yul\":1714:1785   */\n      tag_86\n        /* \"#utility.yul\":1782:1783   */\n      0x00\n        /* \"#utility.yul\":1771:1780   */\n      dup4\n        /* \"#utility.yul\":1767:1784   */\n      add\n        /* \"#utility.yul\":1758:1764   */\n      dup5\n        /* \"#utility.yul\":1714:1785   */\n      tag_54\n      jump\t// in\n    tag_86:\n        /* \"#utility.yul\":1570:1792   */\n      swap3\n      swap2\n      pop\n      pop\n      jump\t// out\n        /* \"#utility.yul\":1798:1924   */\n    tag_55:\n        /* \"#utility.yul\":1835:1842   */\n      0x00\n        /* \"#utility.yul\":1875:1917   */\n      0xffffffffffffffffffffffffffffffffffffffff\n        /* \"#utility.yul\":1868:1873   */\n      dup3\n        /* \"#utility.yul\":1864:1918   */\n      and\n        /* \"#utility.yul\":1853:1918   */\n      swap1\n      pop\n        /* \"#utility.yul\":1798:1924   */\n      swap2\n      swap1\n      pop\n      jump\t// out\n        /* \"#utility.yul\":1930:2026   */\n    tag_56:\n        /* \"#utility.yul\":1967:1974   */\n      0x00\n        /* \"#utility.yul\":1996:2020   */\n      tag_89\n        /* \"#utility.yul\":2014:2019   */\n      dup3\n        /* \"#utility.yul\":1996:2020   */\n      tag_55\n      jump\t// in\n    tag_89:\n        /* \"#utility.yul\":1985:2020   */\n      swap1\n      pop\n        /* \"#utility.yul\":1930:2026   */\n      swap2\n      swap1\n      pop\n      jump\t// out\n        /* \"#utility.yul\":2032:2154   */\n    tag_57:\n        /* \"#utility.yul\":2105:2129   */\n      tag_91\n        /* \"#utility.yul\":2123:2128   */\n      dup2\n        /* \"#utility.yul\":2105:2129   */\n      tag_56\n      jump\t// in\n    tag_91:\n        /* \"#utility.yul\":2098:2103   */\n      dup2\n        /* \"#utility.yul\":2095:2130   */\n      eq\n        /* \"#utility.yul\":2085:2148   */\n      tag_92\n      jumpi\n        /* \"#utility.yul\":2144:2145   */\n      0x00\n        /* \"#utility.yul\":2141:2142   */\n      0x00\n        /* \"#utility.yul\":2134:2146   */\n      revert\n        /* \"#utility.yul\":2085:2148   */\n    tag_92:\n        /* \"#utility.yul\":2032:2154   */\n      pop\n      jump\t// out\n        /* \"#utility.yul\":2160:2299   */\n    tag_58:\n        /* \"#utility.yul\":2206:2211   */\n      0x00\n        /* \"#utility.yul\":2244:2250   */\n      dup2\n        /* \"#utility.yul\":2231:2251   */\n      calldataload\n        /* \"#utility.yul\":2222:2251   */\n      swap1\n      pop\n        /* \"#utility.yul\":2260:2293   */\n      tag_94\n        /* \"#utility.yul\":2287:2292   */\n      dup2\n        /* \"#utility.yul\":2260:2293   */\n      tag_57\n      jump\t// in\n    tag_94:\n        /* \"#utility.yul\":2160:2299   */\n      swap3\n      swap2\n      pop\n      pop\n      jump\t// out\n        /* \"#utility.yul\":2305:2634   */\n    tag_28:\n        /* \"#utility.yul\":2364:2370   */\n      0x00\n        /* \"#utility.yul\":2413:2415   */\n      0x20\n        /* \"#utility.yul\":2401:2410   */\n      dup3\n        /* \"#utility.yul\":2392:2399   */\n      dup5\n        /* \"#utility.yul\":2388:2411   */\n      sub\n        /* \"#utility.yul\":2384:2416   */\n      slt\n        /* \"#utility.yul\":2381:2500   */\n      iszero\n      tag_96\n      jumpi\n        /* \"#utility.yul\":2419:2498   */\n      tag_97\n      tag_48\n      jump\t// in\n    tag_97:\n        /* \"#utility.yul\":2381:2500   */\n    tag_96:\n        /* \"#utility.yul\":2539:2540   */\n      0x00\n        /* \"#utility.yul\":2564:2617   */\n      tag_98\n        /* \"#utility.yul\":2609:2616   */\n      dup5\n        /* \"#utility.yul\":2600:2606   */\n      dup3\n        /* \"#utility.yul\":2589:2598   */\n      dup6\n        /* \"#utility.yul\":2585:2607   */\n      add\n        /* \"#utility.yul\":2564:2617   */\n      tag_58\n      jump\t// in\n    tag_98:\n        /* \"#utility.yul\":2554:2617   */\n      swap2\n      pop\n        /* \"#utility.yul\":2510:2627   */\n      pop\n        /* \"#utility.yul\":2305:2634   */\n      swap3\n      swap2\n      pop\n      pop\n      jump\t// out\n        /* \"#utility.yul\":2640:2730   */\n    tag_59:\n        /* \"#utility.yul\":2674:2681   */\n      0x00\n        /* \"#utility.yul\":2717:2722   */\n      dup2\n        /* \"#utility.yul\":2710:2723   */\n      iszero\n        /* \"#utility.yul\":2703:2724   */\n      iszero\n        /* \"#utility.yul\":2692:2724   */\n      swap1\n      pop\n        /* \"#utility.yul\":2640:2730   */\n      swap2\n      swap1\n      pop\n      jump\t// out\n        /* \"#utility.yul\":2736:2845   */\n    tag_60:\n        /* \"#utility.yul\":2817:2838   */\n      tag_101\n        /* \"#utility.yul\":2832:2837   */\n      dup2\n        /* \"#utility.yul\":2817:2838   */\n      tag_59\n      jump\t// in\n    tag_101:\n        /* \"#utility.yul\":2812:2815   */\n      dup3\n        /* \"#utility.yul\":2805:2839   */\n      mstore\n        /* \"#utility.yul\":2736:2845   */\n      pop\n      pop\n      jump\t// out\n        /* \"#utility.yul\":2851:3061   */\n    tag_31:\n        /* \"#utility.yul\":2938:2942   */\n      0x00\n        /* \"#utility.yul\":2976:2978   */\n      0x20\n        /* \"#utility.yul\":2965:2974   */\n      dup3\n        /* \"#utility.yul\":2961:2979   */\n      add\n        /* \"#utility.yul\":2953:2979   */\n      swap1\n      pop\n        /* \"#utility.yul\":2989:3054   */\n      tag_103\n        /* \"#utility.yul\":3051:3052   */\n      0x00\n        /* \"#utility.yul\":3040:3049   */\n      dup4\n        /* \"#utility.yul\":3036:3053   */\n      add\n        /* \"#utility.yul\":3027:3033   */\n      dup5\n        /* \"#utility.yul\":2989:3054   */\n      tag_60\n      jump\t// in\n    tag_103:\n        /* \"#utility.yul\":2851:3061   */\n      swap3\n      swap2\n      pop\n      pop\n      jump\t// out\n        /* \"#utility.yul\":3067:3236   */\n    tag_61:\n        /* \"#utility.yul\":3151:3162   */\n      0x00\n        /* \"#utility.yul\":3185:3191   */\n      dup3\n        /* \"#utility.yul\":3180:3183   */\n      dup3\n        /* \"#utility.yul\":3173:3192   */\n      mstore\n        /* \"#utility.yul\":3225:3229   */\n      0x20\n        /* \"#utility.yul\":3220:3223   */\n      dup3\n        /* \"#utility.yul\":3216:3230   */\n      add\n        /* \"#utility.yul\":3201:3230   */\n      swap1\n      pop\n        /* \"#utility.yul\":3067:3236   */\n      swap3\n      swap2\n      pop\n      pop\n      jump\t// out\n        /* \"#utility.yul\":3242:3416   */\n    tag_62:\n        /* \"#utility.yul\":3382:3408   */\n      0x54686520766f74657220616c726561647920766f7465642e0000000000000000\n        /* \"#utility.yul\":3378:3379   */\n      0x00\n        /* \"#utility.yul\":3370:3376   */\n      dup3\n        /* \"#utility.yul\":3366:3380   */\n      add\n        /* \"#utility.yul\":3359:3409   */\n      mstore\n        /* \"#utility.yul\":3242:3416   */\n      pop\n      jump\t// out\n        /* \"#utility.yul\":3422:3788   */\n    tag_63:\n        /* \"#utility.yul\":3564:3567   */\n      0x00\n        /* \"#utility.yul\":3585:3652   */\n      tag_107\n        /* \"#utility.yul\":3649:3651   */\n      0x18\n        /* \"#utility.yul\":3644:3647   */\n      dup4\n        /* \"#utility.yul\":3585:3652   */\n      tag_61\n      jump\t// in\n    tag_107:\n        /* \"#utility.yul\":3578:3652   */\n      swap2\n      pop\n        /* \"#utility.yul\":3661:3754   */\n      tag_108\n        /* \"#utility.yul\":3750:3753   */\n      dup3\n        /* \"#utility.yul\":3661:3754   */\n      tag_62\n      jump\t// in\n    tag_108:\n        /* \"#utility.yul\":3779:3781   */\n      0x20\n        /* \"#utility.yul\":3774:3777   */\n      dup3\n        /* \"#utility.yul\":3770:3782   */\n      add\n        /* \"#utility.yul\":3763:3782   */\n      swap1\n      pop\n        /* \"#utility.yul\":3422:3788   */\n      swap2\n      swap1\n      pop\n      jump\t// out\n        /* \"#utility.yul\":3794:4213   */\n    tag_40:\n        /* \"#utility.yul\":3960:3964   */\n      0x00\n        /* \"#utility.yul\":3998:4000   */\n      0x20\n        /* \"#utility.yul\":3987:3996   */\n      dup3\n        /* \"#utility.yul\":3983:4001   */\n      add\n        /* \"#utility.yul\":3975:4001   */\n      swap1\n      pop\n        /* \"#utility.yul\":4047:4056   */\n      dup2\n        /* \"#utility.yul\":4041:4045   */\n      dup2\n        /* \"#utility.yul\":4037:4057   */\n      sub\n        /* \"#utility.yul\":4033:4034   */\n      0x00\n        /* \"#utility.yul\":4022:4031   */\n      dup4\n        /* \"#utility.yul\":4018:4035   */\n      add\n        /* \"#utility.yul\":4011:4058   */\n      mstore\n        /* \"#utility.yul\":4075:4206   */\n      tag_110\n        /* \"#utility.yul\":4201:4205   */\n      dup2\n        /* \"#utility.yul\":4075:4206   */\n      tag_63\n      jump\t// in\n    tag_110:\n        /* \"#utility.yul\":4067:4206   */\n      swap1\n      pop\n        /* \"#utility.yul\":3794:4213   */\n      swap2\n      swap1\n      pop\n      jump\t// out\n        /* \"#utility.yul\":4219:4399   */\n    tag_64:\n        /* \"#utility.yul\":4267:4344   */\n      0x4e487b7100000000000000000000000000000000000000000000000000000000\n        /* \"#utility.yul\":4264:4265   */\n      0x00\n        /* \"#utility.yul\":4257:4345   */\n      mstore\n        /* \"#utility.yul\":4364:4368   */\n      0x11\n        /* \"#utility.yul\":4361:4362   */\n      0x04\n        /* \"#utility.yul\":4354:4369   */\n      mstore\n        /* \"#utility.yul\":4388:4392   */\n      0x24\n        /* \"#utility.yul\":4385:4386   */\n      0x00\n        /* \"#utility.yul\":4378:4393   */\n      revert\n        /* \"#utility.yul\":4405:4638   */\n    tag_44:\n        /* \"#utility.yul\":4444:4447   */\n      0x00\n        /* \"#utility.yul\":4467:4491   */\n      tag_113\n        /* \"#utility.yul\":4485:4490   */\n      dup3\n        /* \"#utility.yul\":4467:4491   */\n      tag_53\n      jump\t// in\n    tag_113:\n        /* \"#utility.yul\":4458:4491   */\n      swap2\n      pop\n        /* \"#utility.yul\":4513:4579   */\n      0xffffffffffffffffffffffffffffffffffffffffffffffffffffffffffffffff\n        /* \"#utility.yul\":4506:4511   */\n      dup3\n        /* \"#utility.yul\":4503:4580   */\n      sub\n        /* \"#utility.yul\":4500:4603   */\n      tag_114\n      jumpi\n        /* \"#utility.yul\":4583:4601   */\n      tag_115\n      tag_64\n      jump\t// in\n    tag_115:\n        /* \"#utility.yul\":4500:4603   */\n    tag_114:\n        /* \"#utility.yul\":4630:4631   */\n      0x01\n        /* \"#utility.yul\":4623:4628   */\n      dup3\n        /* \"#utility.yul\":4619:4632   */\n      add\n        /* \"#utility.yul\":4612:4632   */\n      swap1\n      pop\n        /* \"#utility.yul\":4405:4638   */\n      swap2\n      swap1\n      pop\n      jump\t// out\n\n    auxdata: 0xa264697066735822122038a970010db9487c90875b9aa4bc8eb4c561a85b57b764679a8f82d89657123a64736f6c634300081e0033\n}\n",
				"bytecode": {
					"linkReferences": {},
					"object": "608060405234801561000f575f5ffd5b506040516108d73803806108d78339818101604052810190610031919061027f565b5f815111610074576040517f08c379a000000000000000000000000000000000000000000000000000000000815260040161006b90610320565b60405180910390fd5b5f5f90505b81518110156100e45760405180604001604052805f81526020015f81525060015f8484815181106100ad576100ac61033e565b5b602002602001015181526020019081526020015f205f820151815f0155602082015181600101559050508080600101915050610079565b505061036b565b5f604051905090565b5f5ffd5b5f5ffd5b5f5ffd5b5f601f19601f8301169050919050565b7f4e487b71000000000000000000000000000000000000000000000000000000005f52604160045260245ffd5b61014682610100565b810181811067ffffffffffffffff8211171561016557610164610110565b5b80604052505050565b5f6101776100eb565b9050610183828261013d565b919050565b5f67ffffffffffffffff8211156101a2576101a1610110565b5b602082029050602081019050919050565b5f5ffd5b5f819050919050565b6101c9816101b7565b81146101d3575f5ffd5b50565b5f815190506101e4816101c0565b92915050565b5f6101fc6101f784610188565b61016e565b9050808382526020820190506020840283018581111561021f5761021e6101b3565b5b835b81811015610248578061023488826101d6565b845260208401935050602081019050610221565b5050509392505050565b5f82601f830112610266576102656100fc565b5b81516102768482602086016101ea565b91505092915050565b5f60208284031215610294576102936100f4565b5b5f82015167ffffffffffffffff8111156102b1576102b06100f8565b5b6102bd84828501610252565b91505092915050565b5f82825260208201905092915050565b7f456d7074792063616e64696461746500000000000000000000000000000000005f82015250565b5f61030a600f836102c6565b9150610315826102d6565b602082019050919050565b5f6020820190508181035f830152610337816102fe565b9050919050565b7f4e487b71000000000000000000000000000000000000000000000000000000005f52603260045260245ffd5b61055f806103785f395ff3fe608060405234801561000f575f5ffd5b5060043610610060575f3560e01c80631a0478d5146100645780634c051100146100955780639d888e86146100c5578063a69beaba146100e3578063af0dbe54146100ff578063b9830ff11461012f575b5f5ffd5b61007e60048036038101906100799190610302565b610139565b60405161008c929190610345565b60405180910390f35b6100af60048036038101906100aa9190610302565b610159565b6040516100bc919061036c565b60405180910390f35b6100cd61018d565b6040516100da919061036c565b60405180910390f35b6100fd60048036038101906100f89190610302565b610192565b005b610119600480360381019061011491906103df565b610296565b6040516101269190610424565b60405180910390f35b6101376102b3565b005b6001602052805f5260405f205f91509050805f0154908060010154905082565b5f5f60015f8481526020019081526020015f2090505f54816001015414610180575f610185565b805f01545b915050919050565b5f5481565b60025f3373ffffffffffffffffffffffffffffffffffffffff1673ffffffffffffffffffffffffffffffffffffffff1681526020019081526020015f205f9054906101000a900460ff161561021c576040517f08c379a000000000000000000000000000000000000000000000000000000000815260040161021390610497565b60405180910390fd5b5f5460015f8381526020019081526020015f20600101541461026b575f5460015f8381526020019081526020015f20600101819055505f60015f8381526020019081526020015f205f01819055505b60015f8281526020019081526020015f205f015f81548092919061028e906104e2565b919050555050565b6002602052805f5260405f205f915054906101000a900460ff1681565b5f5f8154809291906102c4906104e2565b9190505550565b5f5ffd5b5f819050919050565b6102e1816102cf565b81146102eb575f5ffd5b50565b5f813590506102fc816102d8565b92915050565b5f60208284031215610317576103166102cb565b5b5f610324848285016102ee565b91505092915050565b5f819050919050565b61033f8161032d565b82525050565b5f6040820190506103585f830185610336565b6103656020830184610336565b9392505050565b5f60208201905061037f5f830184610336565b92915050565b5f73ffffffffffffffffffffffffffffffffffffffff82169050919050565b5f6103ae82610385565b9050919050565b6103be816103a4565b81146103c8575f5ffd5b50565b5f813590506103d9816103b5565b92915050565b5f602082840312156103f4576103f36102cb565b5b5f610401848285016103cb565b91505092915050565b5f8115159050919050565b61041e8161040a565b82525050565b5f6020820190506104375f830184610415565b92915050565b5f82825260208201905092915050565b7f54686520766f74657220616c726561647920766f7465642e00000000000000005f82015250565b5f61048160188361043d565b915061048c8261044d565b602082019050919050565b5f6020820190508181035f8301526104ae81610475565b9050919050565b7f4e487b71000000000000000000000000000000000000000000000000000000005f52601160045260245ffd5b5f6104ec8261032d565b91507fffffffffffffffffffffffffffffffffffffffffffffffffffffffffffffffff820361051e5761051d6104b5565b5b60018201905091905056fea264697066735822122038a970010db9487c90875b9aa4bc8eb4c561a85b57b764679a8f82d89657123a64736f6c634300081e0033",
					"opcodes": "PUSH1 0x80 PUSH1 0x40 MSTORE CALLVALUE DUP1 ISZERO PUSH2 0xF JUMPI PUSH0 PUSH0 REVERT JUMPDEST POP PUSH1 0x40 MLOAD PUSH2 0x8D7 CODESIZE SUB DUP1 PUSH2 0x8D7 DUP4 CODECOPY DUP2 DUP2 ADD PUSH1 0x40 MSTORE DUP2 ADD SWAP1 PUSH2 0x31 SWAP2 SWAP1 PUSH2 0x27F JUMP JUMPDEST PUSH0 DUP2 MLOAD GT PUSH2 0x74 JUMPI PUSH1 0x40 MLOAD PUSH32 0x8C379A000000000000000000000000000000000000000000000000000000000 DUP2 MSTORE PUSH1 0x4 ADD PUSH2 0x6B SWAP1 PUSH2 0x320 JUMP JUMPDEST PUSH1 0x40 MLOAD DUP1 SWAP2 SUB SWAP1 REVERT JUMPDEST PUSH0 PUSH0 SWAP1 POP JUMPDEST DUP2 MLOAD DUP2 LT ISZERO PUSH2 0xE4 JUMPI PUSH1 0x40 MLOAD DUP1 PUSH1 0x40 ADD PUSH1 0x40 MSTORE DUP1 PUSH0 DUP2 MSTORE PUSH1 0x20 ADD PUSH0 DUP2 MSTORE POP PUSH1 0x1 PUSH0 DUP5 DUP5 DUP2 MLOAD DUP2 LT PUSH2 0xAD JUMPI PUSH2 0xAC PUSH2 0x33E JUMP JUMPDEST JUMPDEST PUSH1 0x20 MUL PUSH1 0x20 ADD ADD MLOAD DUP2 MSTORE PUSH1 0x20 ADD SWAP1 DUP2 MSTORE PUSH1 0x20 ADD PUSH0 KECCAK256 PUSH0 DUP3 ADD MLOAD DUP2 PUSH0 ADD SSTORE PUSH1 0x20 DUP3 ADD MLOAD DUP2 PUSH1 0x1 ADD SSTORE SWAP1 POP POP DUP1 DUP1 PUSH1 0x1 ADD SWAP2 POP POP PUSH2 0x79 JUMP JUMPDEST POP POP PUSH2 0x36B JUMP JUMPDEST PUSH0 PUSH1 0x40 MLOAD SWAP1 POP SWAP1 JUMP JUMPDEST PUSH0 PUSH0 REVERT JUMPDEST PUSH0 PUSH0 REVERT JUMPDEST PUSH0 PUSH0 REVERT JUMPDEST PUSH0 PUSH1 0x1F NOT PUSH1 0x1F DUP4 ADD AND SWAP1 POP SWAP2 SWAP1 POP JUMP JUMPDEST PUSH32 0x4E487B7100000000000000000000000000000000000000000000000000000000 PUSH0 MSTORE PUSH1 0x41 PUSH1 0x4 MSTORE PUSH1 0x24 PUSH0 REVERT JUMPDEST PUSH2 0x146 DUP3 PUSH2 0x100 JUMP JUMPDEST DUP2 ADD DUP2 DUP2 LT PUSH8 0xFFFFFFFFFFFFFFFF DUP3 GT OR ISZERO PUSH2 0x165 JUMPI PUSH2 0x164 PUSH2 0x110 JUMP JUMPDEST JUMPDEST DUP1 PUSH1 0x40 MSTORE POP POP POP JUMP JUMPDEST PUSH0 PUSH2 0x177 PUSH2 0xEB JUMP JUMPDEST SWAP1 POP PUSH2 0x183 DUP3 DUP3 PUSH2 0x13D JUMP JUMPDEST SWAP2 SWAP1 POP JUMP JUMPDEST PUSH0 PUSH8 0xFFFFFFFFFFFFFFFF DUP3 GT ISZERO PUSH2 0x1A2 JUMPI PUSH2 0x1A1 PUSH2 0x110 JUMP JUMPDEST JUMPDEST PUSH1 0x20 DUP3 MUL SWAP1 POP PUSH1 0x20 DUP2 ADD SWAP1 POP SWAP2 SWAP1 POP JUMP JUMPDEST PUSH0 PUSH0 REVERT JUMPDEST PUSH0 DUP2 SWAP1 POP SWAP2 SWAP1 POP JUMP JUMPDEST PUSH2 0x1C9 DUP2 PUSH2 0x1B7 JUMP JUMPDEST DUP2 EQ PUSH2 0x1D3 JUMPI PUSH0 PUSH0 REVERT JUMPDEST POP JUMP JUMPDEST PUSH0 DUP2 MLOAD SWAP1 POP PUSH2 0x1E4 DUP2 PUSH2 0x1C0 JUMP JUMPDEST SWAP3 SWAP2 POP POP JUMP JUMPDEST PUSH0 PUSH2 0x1FC PUSH2 0x1F7 DUP5 PUSH2 0x188 JUMP JUMPDEST PUSH2 0x16E JUMP JUMPDEST SWAP1 POP DUP1 DUP4 DUP3 MSTORE PUSH1 0x20 DUP3 ADD SWAP1 POP PUSH1 0x20 DUP5 MUL DUP4 ADD DUP6 DUP2 GT ISZERO PUSH2 0x21F JUMPI PUSH2 0x21E PUSH2 0x1B3 JUMP JUMPDEST JUMPDEST DUP4 JUMPDEST DUP2 DUP2 LT ISZERO PUSH2 0x248 JUMPI DUP1 PUSH2 0x234 DUP9 DUP3 PUSH2 0x1D6 JUMP JUMPDEST DUP5 MSTORE PUSH1 0x20 DUP5 ADD SWAP4 POP POP PUSH1 0x20 DUP2 ADD SWAP1 POP PUSH2 0x221 JUMP JUMPDEST POP POP POP SWAP4 SWAP3 POP POP POP JUMP JUMPDEST PUSH0 DUP3 PUSH1 0x1F DUP4 ADD SLT PUSH2 0x266 JUMPI PUSH2 0x265 PUSH2 0xFC JUMP JUMPDEST JUMPDEST DUP2 MLOAD PUSH2 0x276 DUP5 DUP3 PUSH1 0x20 DUP7 ADD PUSH2 0x1EA JUMP JUMPDEST SWAP2 POP POP SWAP3 SWAP2 POP POP JUMP JUMPDEST PUSH0 PUSH1 0x20 DUP3 DUP5 SUB SLT ISZERO PUSH2 0x294 JUMPI PUSH2 0x293 PUSH2 0xF4 JUMP JUMPDEST JUMPDEST PUSH0 DUP3 ADD MLOAD PUSH8 0xFFFFFFFFFFFFFFFF DUP2 GT ISZERO PUSH2 0x2B1 JUMPI PUSH2 0x2B0 PUSH2 0xF8 JUMP JUMPDEST JUMPDEST PUSH2 0x2BD DUP5 DUP3 DUP6 ADD PUSH2 0x252 JUMP JUMPDEST SWAP2 POP POP SWAP3 SWAP2 POP POP JUMP JUMPDEST PUSH0 DUP3 DUP3 MSTORE PUSH1 0x20 DUP3 ADD SWAP1 POP SWAP3 SWAP2 POP POP JUMP JUMPDEST PUSH32 0x456D7074792063616E6469646174650000000000000000000000000000000000 PUSH0 DUP3 ADD MSTORE POP JUMP JUMPDEST PUSH0 PUSH2 0x30A PUSH1 0xF DUP4 PUSH2 0x2C6 JUMP JUMPDEST SWAP2 POP PUSH2 0x315 DUP3 PUSH2 0x2D6 JUMP JUMPDEST PUSH1 0x20 DUP3 ADD SWAP1 POP SWAP2 SWAP1 POP JUMP JUMPDEST PUSH0 PUSH1 0x20 DUP3 ADD SWAP1 POP DUP2 DUP2 SUB PUSH0 DUP4 ADD MSTORE PUSH2 0x337 DUP2 PUSH2 0x2FE JUMP JUMPDEST SWAP1 POP SWAP2 SWAP1 POP JUMP JUMPDEST PUSH32 0x4E487B7100000000000000000000000000000000000000000000000000000000 PUSH0 MSTORE PUSH1 0x32 PUSH1 0x4 MSTORE PUSH1 0x24 PUSH0 REVERT JUMPDEST PUSH2 0x55F DUP1 PUSH2 0x378 PUSH0 CODECOPY PUSH0 RETURN INVALID PUSH1 0x80 PUSH1 0x40 MSTORE CALLVALUE DUP1 ISZERO PUSH2 0xF JUMPI PUSH0 PUSH0 REVERT JUMPDEST POP PUSH1 0x4 CALLDATASIZE LT PUSH2 0x60 JUMPI PUSH0 CALLDATALOAD PUSH1 0xE0 SHR DUP1 PUSH4 0x1A0478D5 EQ PUSH2 0x64 JUMPI DUP1 PUSH4 0x4C051100 EQ PUSH2 0x95 JUMPI DUP1 PUSH4 0x9D888E86 EQ PUSH2 0xC5 JUMPI DUP1 PUSH4 0xA69BEABA EQ PUSH2 0xE3 JUMPI DUP1 PUSH4 0xAF0DBE54 EQ PUSH2 0xFF JUMPI DUP1 PUSH4 0xB9830FF1 EQ PUSH2 0x12F JUMPI JUMPDEST PUSH0 PUSH0 REVERT JUMPDEST PUSH2 0x7E PUSH1 0x4 DUP1 CALLDATASIZE SUB DUP2 ADD SWAP1 PUSH2 0x79 SWAP2 SWAP1 PUSH2 0x302 JUMP JUMPDEST PUSH2 0x139 JUMP JUMPDEST PUSH1 0x40 MLOAD PUSH2 0x8C SWAP3 SWAP2 SWAP1 PUSH2 0x345 JUMP JUMPDEST PUSH1 0x40 MLOAD DUP1 SWAP2 SUB SWAP1 RETURN JUMPDEST PUSH2 0xAF PUSH1 0x4 DUP1 CALLDATASIZE SUB DUP2 ADD SWAP1 PUSH2 0xAA SWAP2 SWAP1 PUSH2 0x302 JUMP JUMPDEST PUSH2 0x159 JUMP JUMPDEST PUSH1 0x40 MLOAD PUSH2 0xBC SWAP2 SWAP1 PUSH2 0x36C JUMP JUMPDEST PUSH1 0x40 MLOAD DUP1 SWAP2 SUB SWAP1 RETURN JUMPDEST PUSH2 0xCD PUSH2 0x18D JUMP JUMPDEST PUSH1 0x40 MLOAD PUSH2 0xDA SWAP2 SWAP1 PUSH2 0x36C JUMP JUMPDEST PUSH1 0x40 MLOAD DUP1 SWAP2 SUB SWAP1 RETURN JUMPDEST PUSH2 0xFD PUSH1 0x4 DUP1 CALLDATASIZE SUB DUP2 ADD SWAP1 PUSH2 0xF8 SWAP2 SWAP1 PUSH2 0x302 JUMP JUMPDEST PUSH2 0x192 JUMP JUMPDEST STOP JUMPDEST PUSH2 0x119 PUSH1 0x4 DUP1 CALLDATASIZE SUB DUP2 ADD SWAP1 PUSH2 0x114 SWAP2 SWAP1 PUSH2 0x3DF JUMP JUMPDEST PUSH2 0x296 JUMP JUMPDEST PUSH1 0x40 MLOAD PUSH2 0x126 SWAP2 SWAP1 PUSH2 0x424 JUMP JUMPDEST PUSH1 0x40 MLOAD DUP1 SWAP2 SUB SWAP1 RETURN JUMPDEST PUSH2 0x137 PUSH2 0x2B3 JUMP JUMPDEST STOP JUMPDEST PUSH1 0x1 PUSH1 0x20 MSTORE DUP1 PUSH0 MSTORE PUSH1 0x40 PUSH0 KECCAK256 PUSH0 SWAP2 POP SWAP1 POP DUP1 PUSH0 ADD SLOAD SWAP1 DUP1 PUSH1 0x1 ADD SLOAD SWAP1 POP DUP3 JUMP JUMPDEST PUSH0 PUSH0 PUSH1 0x1 PUSH0 DUP5 DUP2 MSTORE PUSH1 0x20 ADD SWAP1 DUP2 MSTORE PUSH1 0x20 ADD PUSH0 KECCAK256 SWAP1 POP PUSH0 SLOAD DUP2 PUSH1 0x1 ADD SLOAD EQ PUSH2 0x180 JUMPI PUSH0 PUSH2 0x185 JUMP JUMPDEST DUP1 PUSH0 ADD SLOAD JUMPDEST SWAP2 POP POP SWAP2 SWAP1 POP JUMP JUMPDEST PUSH0 SLOAD DUP2 JUMP JUMPDEST PUSH1 0x2 PUSH0 CALLER PUSH20 0xFFFFFFFFFFFFFFFFFFFFFFFFFFFFFFFFFFFFFFFF AND PUSH20 0xFFFFFFFFFFFFFFFFFFFFFFFFFFFFFFFFFFFFFFFF AND DUP2 MSTORE PUSH1 0x20 ADD SWAP1 DUP2 MSTORE PUSH1 0x20 ADD PUSH0 KECCAK256 PUSH0 SWAP1 SLOAD SWAP1 PUSH2 0x100 EXP SWAP1 DIV PUSH1 0xFF AND ISZERO PUSH2 0x21C JUMPI PUSH1 0x40 MLOAD PUSH32 0x8C379A000000000000000000000000000000000000000000000000000000000 DUP2 MSTORE PUSH1 0x4 ADD PUSH2 0x213 SWAP1 PUSH2 0x497 JUMP JUMPDEST PUSH1 0x40 MLOAD DUP1 SWAP2 SUB SWAP1 REVERT JUMPDEST PUSH0 SLOAD PUSH1 0x1 PUSH0 DUP4 DUP2 MSTORE PUSH1 0x20 ADD SWAP1 DUP2 MSTORE PUSH1 0x20 ADD PUSH0 KECCAK256 PUSH1 0x1 ADD SLOAD EQ PUSH2 0x26B JUMPI PUSH0 SLOAD PUSH1 0x1 PUSH0 DUP4 DUP2 MSTORE PUSH1 0x20 ADD SWAP1 DUP2 MSTORE PUSH1 0x20 ADD PUSH0 KECCAK256 PUSH1 0x1 ADD DUP2 SWAP1 SSTORE POP PUSH0 PUSH1 0x1 PUSH0 DUP4 DUP2 MSTORE PUSH1 0x20 ADD SWAP1 DUP2 MSTORE PUSH1 0x20 ADD PUSH0 KECCAK256 PUSH0 ADD DUP2 SWAP1 SSTORE POP JUMPDEST PUSH1 0x1 PUSH0 DUP3 DUP2 MSTORE PUSH1 0x20 ADD SWAP1 DUP2 MSTORE PUSH1 0x20 ADD PUSH0 KECCAK256 PUSH0 ADD PUSH0 DUP2 SLOAD DUP1 SWAP3 SWAP2 SWAP1 PUSH2 0x28E SWAP1 PUSH2 0x4E2 JUMP JUMPDEST SWAP2 SWAP1 POP SSTORE POP POP JUMP JUMPDEST PUSH1 0x2 PUSH1 0x20 MSTORE DUP1 PUSH0 MSTORE PUSH1 0x40 PUSH0 KECCAK256 PUSH0 SWAP2 POP SLOAD SWAP1 PUSH2 0x100 EXP SWAP1 DIV PUSH1 0xFF AND DUP2 JUMP JUMPDEST PUSH0 PUSH0 DUP2 SLOAD DUP1 SWAP3 SWAP2 SWAP1 PUSH2 0x2C4 SWAP1 PUSH2 0x4E2 JUMP JUMPDEST SWAP2 SWAP1 POP SSTORE POP JUMP JUMPDEST PUSH0 PUSH0 REVERT JUMPDEST PUSH0 DUP2 SWAP1 POP SWAP2 SWAP1 POP JUMP JUMPDEST PUSH2 0x2E1 DUP2 PUSH2 0x2CF JUMP JUMPDEST DUP2 EQ PUSH2 0x2EB JUMPI PUSH0 PUSH0 REVERT JUMPDEST POP JUMP JUMPDEST PUSH0 DUP2 CALLDATALOAD SWAP1 POP PUSH2 0x2FC DUP2 PUSH2 0x2D8 JUMP JUMPDEST SWAP3 SWAP2 POP POP JUMP JUMPDEST PUSH0 PUSH1 0x20 DUP3 DUP5 SUB SLT ISZERO PUSH2 0x317 JUMPI PUSH2 0x316 PUSH2 0x2CB JUMP JUMPDEST JUMPDEST PUSH0 PUSH2 0x324 DUP5 DUP3 DUP6 ADD PUSH2 0x2EE JUMP JUMPDEST SWAP2 POP POP SWAP3 SWAP2 POP POP JUMP JUMPDEST PUSH0 DUP2 SWAP1 POP SWAP2 SWAP1 POP JUMP JUMPDEST PUSH2 0x33F DUP2 PUSH2 0x32D JUMP JUMPDEST DUP3 MSTORE POP POP JUMP JUMPDEST PUSH0 PUSH1 0x40 DUP3 ADD SWAP1 POP PUSH2 0x358 PUSH0 DUP4 ADD DUP6 PUSH2 0x336 JUMP JUMPDEST PUSH2 0x365 PUSH1 0x20 DUP4 ADD DUP5 PUSH2 0x336 JUMP JUMPDEST SWAP4 SWAP3 POP POP POP JUMP JUMPDEST PUSH0 PUSH1 0x20 DUP3 ADD SWAP1 POP PUSH2 0x37F PUSH0 DUP4 ADD DUP5 PUSH2 0x336 JUMP JUMPDEST SWAP3 SWAP2 POP POP JUMP JUMPDEST PUSH0 PUSH20 0xFFFFFFFFFFFFFFFFFFFFFFFFFFFFFFFFFFFFFFFF DUP3 AND SWAP1 POP SWAP2 SWAP1 POP JUMP JUMPDEST PUSH0 PUSH2 0x3AE DUP3 PUSH2 0x385 JUMP JUMPDEST SWAP1 POP SWAP2 SWAP1 POP JUMP JUMPDEST PUSH2 0x3BE DUP2 PUSH2 0x3A4 JUMP JUMPDEST DUP2 EQ PUSH2 0x3C8 JUMPI PUSH0 PUSH0 REVERT JUMPDEST POP JUMP JUMPDEST PUSH0 DUP2 CALLDATALOAD SWAP1 POP PUSH2 0x3D9 DUP2 PUSH2 0x3B5 JUMP JUMPDEST SWAP3 SWAP2 POP POP JUMP JUMPDEST PUSH0 PUSH1 0x20 DUP3 DUP5 SUB SLT ISZERO PUSH2 0x3F4 JUMPI PUSH2 0x3F3 PUSH2 0x2CB JUMP JUMPDEST JUMPDEST PUSH0 PUSH2 0x401 DUP5 DUP3 DUP6 ADD PUSH2 0x3CB JUMP JUMPDEST SWAP2 POP POP SWAP3 SWAP2 POP POP JUMP JUMPDEST PUSH0 DUP2 ISZERO ISZERO SWAP1 POP SWAP2 SWAP1 POP JUMP JUMPDEST PUSH2 0x41E DUP2 PUSH2 0x40A JUMP JUMPDEST DUP3 MSTORE POP POP JUMP JUMPDEST PUSH0 PUSH1 0x20 DUP3 ADD SWAP1 POP PUSH2 0x437 PUSH0 DUP4 ADD DUP5 PUSH2 0x415 JUMP JUMPDEST SWAP3 SWAP2 POP POP JUMP JUMPDEST PUSH0 DUP3 DUP3 MSTORE PUSH1 0x20 DUP3 ADD SWAP1 POP SWAP3 SWAP2 POP POP JUMP JUMPDEST PUSH32 0x54686520766F74657220616C726561647920766F7465642E0000000000000000 PUSH0 DUP3 ADD MSTORE POP JUMP JUMPDEST PUSH0 PUSH2 0x481 PUSH1 0x18 DUP4 PUSH2 0x43D JUMP JUMPDEST SWAP2 POP PUSH2 0x48C DUP3 PUSH2 0x44D JUMP JUMPDEST PUSH1 0x20 DUP3 ADD SWAP1 POP SWAP2 SWAP1 POP JUMP JUMPDEST PUSH0 PUSH1 0x20 DUP3 ADD SWAP1 POP DUP2 DUP2 SUB PUSH0 DUP4 ADD MSTORE PUSH2 0x4AE DUP2 PUSH2 0x475 JUMP JUMPDEST SWAP1 POP SWAP2 SWAP1 POP JUMP JUMPDEST PUSH32 0x4E487B7100000000000000000000000000000000000000000000000000000000 PUSH0 MSTORE PUSH1 0x11 PUSH1 0x4 MSTORE PUSH1 0x24 PUSH0 REVERT JUMPDEST PUSH0 PUSH2 0x4EC DUP3 PUSH2 0x32D JUMP JUMPDEST SWAP2 POP PUSH32 0xFFFFFFFFFFFFFFFFFFFFFFFFFFFFFFFFFFFFFFFFFFFFFFFFFFFFFFFFFFFFFFFF DUP3 SUB PUSH2 0x51E JUMPI PUSH2 0x51D PUSH2 0x4B5 JUMP JUMPDEST JUMPDEST PUSH1 0x1 DUP3 ADD SWAP1 POP SWAP2 SWAP1 POP JUMP INVALID LOG2 PUSH5 0x6970667358 0x22 SLT KECCAK256 CODESIZE 0xA9 PUSH17 0x10DB9487C90875B9AA4BC8EB4C561A85B JUMPI 0xB7 PUSH5 0x679A8F82D8 SWAP7 JUMPI SLT GASPRICE PUSH5 0x736F6C6343 STOP ADDMOD 0x1E STOP CALLER "
				},
				"gasEstimates": {
					"creation": {
						"codeDepositCost": "275000",
						"executionCost": "infinite",
						"totalCost": "infinite"
					},
					"external": {
						"candidates(bytes32)": "infinite",
						"currentVersion()": "2446",
						"getVotes(bytes32)": "7015",
						"resetVotes()": "24584",
						"vote(bytes32)": "60815",
						"voter(address)": "2899"
					}
				},
				"methodIdentifiers": {
					"candidates(bytes32)": "1a0478d5",
					"currentVersion()": "9d888e86",
					"getVotes(bytes32)": "4c051100",
					"resetVotes()": "b9830ff1",
					"vote(bytes32)": "a69beaba",
					"voter(address)": "af0dbe54"
				}
			},
			"storageLayout": {
				"storage": [
					{
						"astId": 8,
						"contract": "discord-task1/src/Voting.sol:Voting",
						"label": "currentVersion",
						"offset": 0,
						"slot": "0",
						"type": "t_uint256"
					},
					{
						"astId": 13,
						"contract": "discord-task1/src/Voting.sol:Voting",
						"label": "candidates",
						"offset": 0,
						"slot": "1",
						"type": "t_mapping(t_bytes32,t_struct(Candidate)6_storage)"
					},
					{
						"astId": 17,
						"contract": "discord-task1/src/Voting.sol:Voting",
						"label": "voter",
						"offset": 0,
						"slot": "2",
						"type": "t_mapping(t_address,t_bool)"
					}
				],
				"types": {
					"t_address": {
						"encoding": "inplace",
						"label": "address",
						"numberOfBytes": "20"
					},
					"t_bool": {
						"encoding": "inplace",
						"label": "bool",
						"numberOfBytes": "1"
					},
					"t_bytes32": {
						"encoding": "inplace",
						"label": "bytes32",
						"numberOfBytes": "32"
					},
					"t_mapping(t_address,t_bool)": {
						"encoding": "mapping",
						"key": "t_address",
						"label": "mapping(address => bool)",
						"numberOfBytes": "32",
						"value": "t_bool"
					},
					"t_mapping(t_bytes32,t_struct(Candidate)6_storage)": {
						"encoding": "mapping",
						"key": "t_bytes32",
						"label": "mapping(bytes32 => struct Voting.Candidate)",
						"numberOfBytes": "32",
						"value": "t_struct(Candidate)6_storage"
					},
					"t_struct(Candidate)6_storage": {
						"encoding": "inplace",
						"label": "struct Voting.Candidate",
						"members": [
							{
								"astId": 3,
								"contract": "discord-task1/src/Voting.sol:Voting",
								"label": "value",
								"offset": 0,
								"slot": "0",
								"type": "t_uint256"
							},
							{
								"astId": 5,
								"contract": "discord-task1/src/Voting.sol:Voting",
								"label": "version",
								"offset": 0,
								"slot": "1",
								"type": "t_uint256"
							}
						],
						"numberOfBytes": "64"
					},
					"t_uint256": {
						"encoding": "inplace",
						"label": "uint256",
						"numberOfBytes": "32"
					}
				}
			},
			"userdoc": {
				"kind": "user",
				"methods": {},
				"version": 1
			}
		}
	}
}